:020000040800F2
:1000000050040020C101000845040008BD03000899
:1000100041040008CF020008BD0E000800000000E7
:10002000000000000000000000000000A50A000819
:10003000D30200080000000047040008C90B0008B4
:10004000DB010008DB010008DB010008DB01000820
:10005000DB010008DB010008DB010008DB01000810
:10006000DB010008DB010008DB010008DB01000800
:10007000DB010008DB010008DB010008DB010008F0
:10008000DB010008DB010008DB010008DB010008E0
:10009000DB010008DB010008DB010008DB010008D0
:1000A000DB010008DB010008DB010008DB010008C0
:1000B000DB010008DB010008DB010008DB010008B0
:1000C000DB010008DB010008DB010008DB010008A0
:1000D000DB0100083D0C0008DB010008DB01000823
:1000E000DB010008DB010008DB010008DB01000880
:1000F000DB010008DB010008DB010008DB01000870
:10010000DB010008DB010008DB010008DB0100085F
:10011000DB010008DB010008DB010008DB0100084F
:10012000DB010008DB010008DB010008DB0100083F
:10013000DB010008DB010008DB010008DB0100082F
:10014000DB010008DB010008DB010008DB0100081F
:10015000DB010008DB010008DB010008DB0100080F
:10016000DB010008DB010008DB010008DB010008FF
:10017000DB010008DB010008DB010008DB010008EF
:10018000DB010008DB010008DB010008DB010008DF
:10019000DB010008DB010008DB010008DB010008CF
:1001A000DB010008DB010008DB010008DFF80CD0F0
:1001B00000F04AF800480047E5110008500400200C
:1001C0000648804706480047FEE7FEE7FEE7FEE7F1
:1001D000FEE7FEE7FEE7FEE7FEE7FEE7D10B0008DD
:1001E000AD0100082DE9F05F0546002092469B46D0
:1001F00088460646814640241BE02846414647463D
:10020000224600F042F853465A46C01A914110D394
:1002100011461846224600F029F82D1A67EB01080E
:100220004F4622460120002100F020F817EB00097C
:100230004E41201EA4F10104DFDC484631462A4627
:100240004346BDE8F09F0000064C074D06E0E0681D
:1002500040F0010394E8070098471034AC42F6D30D
:10026000FFF7A8FF1814000838140008202A04DB40
:10027000203A00FA02F1002070479140C2F12003B9
:1002800020FA03F3194390407047202A04DB203AF8
:1002900021FA02F00021704721FA02F3D040C2F1A6
:1002A0002002914008431946704710B5034607E005
:1002B00018780C78A04201D0002010BD5B1C491CAE
:1002C000101EA2F10104A2B2F2D10120F5E700BF95
:1002D000FEE7704701B502E00098401E00900098CC
:1002E0000028F9D108BDF0B50A46002100230024FA
:1002F00000BF3DE0012505FA01F3156805EA030496
:100300009C4234D105684F000326BE40B5430560CA
:1003100015794E00B5400668354305601579012D05
:1003200002D01579022D16D185684F000326BE40F4
:10033000B543856055794E00B54086683543856084
:10034000456801268E40B5434560456896798E40E4
:10035000B6B235434560C5684F000326BE40B5437D
:10036000C560D5794E00B540C6683543C560491CA7
:100370001029BFD3F0BDF0B5002300244D07ED0ECA
:1003800002FA05F3CE1000F1200555F826504E076D
:10039000F70E0F26BE40B543CF1000F1200646F8F9
:1003A0002750CE1000F1200555F8265045EA0304E9
:1003B000CE1000F1200545F82640F0BD00BFFEE755
:1003C0001CB50121882000F03FF84FF480600090B8
:1003D00001208DF8040000208DF8060001208DF822
:1003E000070000208DF8050069461348FFF77BFFE2
:1003F0004FF40060009069460F48FFF774FF4FF418
:100400008050009069460C48FFF76DFF4FF4006084
:10041000009069460948FFF766FF4FF4806006497F
:100420001A3108804000891E088040000880401072
:1004300002491A3108801CBD001C0240000C024019
:1004400000BFFEE77047704729B1064A12680243B1
:10045000044B1A6004E0034A12688243014B1A609D
:10046000704700003038024029B1064A1268024342
:10047000044B1A6004E0034A12688243014B1A607D
:100480007047000044380240F0B5002100220024EB
:10049000022500260223324F3F6807F00C0121B1EC
:1004A000042905D0082937D105E02E4F076036E032
:1004B0002D4F076033E02A4F3F1F3F68C7F3805638
:1004C000274F3F1F3F6807F03F036EB1264FB7FB32
:1004D000F3F7DFF88CC0ACF1040CDCF800C0CCF30F
:1004E000881C07FB0CF40CE01E4FB7FBF3F7DFF89A
:1004F00070C0ACF1040CDCF800C0CCF3881C07FB26
:100500000CF4174F3F1F3F68C7F301477F1C7D0066
:10051000B4FBF5F7076002E0124F076000BF00BFB1
:100520000F4F3F6807F0F0010909104F7A5C076828
:10053000D74047600A4F3F6807F4E051890A0B4FE4
:100540007A5C4768D7408760054F3F6807F4604191
:10055000490B064F7A5C4768D740C760F0BD000082
:10056000083802400024F40040787D01000000209B
:1005700021B1028842F04002028004E002884FF676
:10058000BF731A400280704770B505460C46164688
:10059000402010490880032000F0D2F9C4F307403E
:1005A00000F0CEF9C4F3072000F0CAF9E0B200F081
:1005B000C7F904E0FF2000F0C3F928706D1C301E5D
:1005C000A6F101018EB2F5D140200249891E0880B2
:1005D00070BD00001A1402402DE9F05F07460E4678
:1005E00014464FF00008C146C2460025AB4606F04F
:1005F000FF0ACAF10000C5B22046E11704EB116101
:10060000C1F30728E11704EB11610912A4EB0121E2
:1006100001F0FF09BAF1000F20D1B8F1000F05D1A8
:1006200022463146384600F0D7F864E009E04FF43E
:1006300080723146384600F0CFF806F5807607F52F
:100640008077B8F10000A8F1010101F0FF08EED1B8
:100650004A463146384600F0BFF84CE0B8F1000F8A
:1006600018D1A94510DDA9EB050000F0FF0B2A46C3
:100670003146384600F0B0F82E442F445A463146F1
:10068000384600F0A9F836E022463146384600F0F8
:10069000A3F830E0601B84B22046E11704EB11613F
:1006A000C1F30728E11704EB11610912A4EB012142
:1006B00001F0FF092A463146384600F08DF82E44F5
:1006C0002F4409E04FF480723146384600F084F838
:1006D00006F5807607F58077B8F10000A8F10101F2
:1006E00001F0FF08EED1B9F1000F04D04A463146BF
:1006F000384600F071F8BDE8F09F000000B587B003
:1007000001212020FFF7A0FE01210805FFF7ACFE24
:10071000052207212E48FFF72EFE052208212C482E
:10072000FFF729FE052209212948FFF724FE802032
:10073000059002208DF819008DF8180000208DF822
:100740001A008DF81B0005A92148FFF7CCFD4FF4D6
:100750008070059005A91E48FFF7C5FD4FF4007095
:10076000059005A91A48FFF7BEFD4020059001201D
:100770008DF8180005A91648FFF7B5FD402014496B
:10078000183108800020ADF800004FF48270ADF8F9
:1007900002000020ADF804000220ADF806000120A0
:1007A000ADF808004002ADF80A000020ADF80C00DA
:1007B000ADF80E000720ADF810006946054800F0BE
:1007C0003DF901210348FFF7D3FE07B000BD00004B
:1007D000001402400050014070B505460C46164614
:1007E00000F002F9402014490880022000F0A8F827
:1007F000C4F3074000F0A4F8C4F3072000F0A0F809
:10080000E0B200F09DF8B6F5807F04DD4FF480760D
:100810000AA000F055FB03E0287800F091F86D1C69
:10082000301EA6F101018EB2F6D140200249891E88
:10083000088000F0B5F870BD1A1402405350495FAB
:10084000464C4153485F5061676557726974652033
:10085000746F6F206C6172676521000010B5002411
:1008600040200C490880AB2000F06AF8FF2000F01F
:1008700067F8FF2000F064F8FF2000F061F8FF2027
:1008800000F05EF8044640200249891E0880204698
:1008900010BD00001A1402402DE9F0410027002489
:1008A000002500264020144908809F2000F048F8C9
:1008B000FF2000F045F80446214610A000F000FBA0
:1008C000FF2000F03DF8054629460CA000F0F8FA9C
:1008D000FF2000F035F80646314608A000F0F0FA97
:1008E00040200549891E0880200440EA052040EA8E
:1008F00006073846BDE8F0811A14024025640A0054
:1009000010B5044600F070F800F04AF840200B499A
:100910000880202000F014F8C4F3074000F010F81D
:10092000C4F3072000F00CF8E0B200F009F8402012
:100930000249891E088000F033F810BD1A140240E5
:1009400070B504464FF4805507E0281EA5F1010557
:1009500003D100F091F8C0B270BD02210F4800F041
:100960005FF80028F1D021460C4800F065F84FF4FC
:10097000805508E0281EA5F1010504D1012000F0F2
:100980007BF8C0B2E8E70121044800F049F80028EC
:10099000F0D0024800F04DF8C0B2DDE70050014051
:1009A00070B5002440200F4908800520FFF7C8FFDC
:1009B0004FF4805500BFFF20FFF7C2FF0446281EFA
:1009C000A5F1010503D1042000F056F870BD04F034
:1009D00001000028EFD140200249891E088000BF95
:1009E000F4E700001A14024010B5402004490880C2
:1009F0000620FFF7A5FF40200149891E088010BD91
:100A00001A14024010B5402004490880B920FFF7AD
:100A100097FF40200149891E088010BD1A1402402A
:100A20000246002013890B400BB1012000E000209A
:100A300070470146888970478181704710B5002250
:100A4000028802F441520B884C8823438C8823434C
:100A5000CC8823430C8923434C8923438C8923432B
:100A6000CC8923431A430280838B4FF2FF742340C7
:100A700083830B8A038210BD10B50446214602A071
:100A800000F01EFA002010BD53504920B5C8B4FD37
:100A9000B3ACCAB1216572726F72436F6465203D59
:100AA00020256400704700000CB5002001900090E4
:100AB0004148006840F480303F49086000BF3E482C
:100AC000006800F4003000900198401C01900098EC
:100AD00018B90198B0F5A04FF1D13748006800F47B
:100AE000003010B10120009001E00020009000983B
:100AF000012860D130484030006840F080502E49D5
:100B0000403108602D48006840F440402B4908609F
:100B100029480830006828490831086008460068FC
:100B200040F4004008600846006840F4A0500860A7
:100B30002348091F0860081F006840F08070091FE3
:100B4000086000BF1C48006800F000700028F9D061
:100B50001A48006840F480301849086000BF174800
:100B6000406800F480300028F9D01448006840F450
:100B700000301249086000BF1048406800F400309F
:100B80000028F9D040F205700E4908600A48083084
:100B9000006820F003000849083108600846006832
:100BA00040F00200086000BF03480830006800F011
:100BB0000C000828F8D10CBD00380240007000403D
:100BC000195A4007003C024010B500F035F810BD3E
:100BD00010B51548006840F47000134908601348C8
:100BE000006840F001001149086000200F490831F9
:100BF00008600E4800680E4908400C4908600D481E
:100C0000091D0860081F006820F48020091F086083
:100C1000002006490C310860FFF746FF4FF00060E6
:100C200001498039086010BD88ED00E000380240BD
:100C3000FFFFF6FE103000247047000010B540F2B0
:100C40002551064800F025F838B1044800F0DAF8DC
:100C5000C4B22146014800F0DAF810BD001001408E
:100C600021B1828942F40052828104E082894DF6EA
:100C7000FF731A408281704702460020B1F5007F61
:100C800000D100BF13880B400BB1012000E0002011
:100C9000704770B50246002400230025002040F66E
:100CA0006A16B14200D100BFC1F3421501F01F0323
:100CB000012606FA03F3012D02D19689334006E09E
:100CC000022D02D1168A334001E0968A33400C127D
:100CD000012606FA04F41688344013B10CB1012041
:100CE00000E0002070BDF0B503460024002600257A
:100CF000002040F66A17B94200D100BF1846C1F380
:100D0000421401F01F06012707FA06F5012C01D154
:100D10000C3004E0022C01D1103000E014301AB184
:100D200007682F43076002E00768AF430760F0BD24
:100D30002DE9FF4705460E460024A14600BFA04608
:100D4000B08900B100BF2C8A24F44054F0880443D9
:100D50002C82AC8941F20C608443B088318908430D
:100D6000718908430443AC81AC8A24F44074B0898F
:100D70000443AC826846FFF787FB2048854202D0D7
:100D80001F48854202D1DDF80C9001E0DDF80890A3
:100D9000A88900F4004040B109EBC90000EB09103C
:100DA00031684900B0FBF1F707E009EBC90000EB3F
:100DB000091031688900B0FBF1F76420B7FBF0F04F
:100DC00004012009642101FB1078A88900F4004087
:100DD00040B1322000EBC800B0FBF1F000F007009A
:100DE000044308E0322000EB08106421B0FBF1F06E
:100DF00000F00F0004432C81BDE8FF870010014084
:100E00000014014001468888C0F308007047C1F310
:100E1000080282807047000000B587B001210846B3
:100E2000FFF712FB01211020FFF71EFB07220A210A
:100E30002048FFF7A0FA072209211E48FFF79BFA76
:100E400000208DF81A0001208DF81B0002208DF87B
:100E500019008DF818000002059005A91548FFF744
:100E600042FA02208DF818004002059005A91148A9
:100E7000FFF739FA4FF4E13001900020ADF8080097
:100E8000ADF80A00ADF80C00ADF810000C20ADF87C
:100E90000E0001A90848FFF74BFF012240F225513F
:100EA0000548FFF720FF01210348FFF7D9FE07B0EF
:100EB00000BD0000000002400010014000BFFEE73E
:100EC0000FB4054B10B503A9044A029800F018F8B6
:100ED00010BC5DF814FB0000C111000834000020B4
:100EE00002E008C8121F08C1002AFAD170477047F3
:100EF000002001E001C1121F002AFBD17047000051
:100F00002DE9FF4F8DB09B460F460446002606E0B4
:100F100025280BD05A460F999047641C761C2078E0
:100F20000028F5D111B03046BDE8F08F0025A84665
:100F30000122984900E0054314F8013F203B02FAE2
:100F400003F00842F7D120782E2817D114F8010FAA
:100F500045F004052A280ED06FF02F022078A0F16A
:100F6000300109290AD808EB880102EB410100EBA6
:100F70000108641CF2E757F8048B641C20786C2885
:100F80000DD004DC4C2812D06A2811D104E074285A
:100F90000DD07A280CD10AE045F4001507E06178FD
:100FA00045F48015814202D1641C05F58015641C4E
:100FB0002278692A45D008DC002AB3D0582A69D0A3
:100FC000632A10D0642A08D13BE0702A67D0732AC4
:100FD00013D0752A5CD0782A5CD010465A460F99F7
:100FE0009047761CD3E017F8040B8DF80000002022
:100FF0008DF80100E946012003E057F8049B4FF00B
:10100000FF3069074FF0000501D40AE06D1C45452B
:101010000DDA8542FADB19F805100029F6D106E051
:101020006D1C8542FCDB19F805100029F8D12E440F
:1010300004E019F8010B5A460F9990476D1EF8D23B
:10104000A5E00A200021CDE90801C5F302500228DD
:101050000DD001CFC117031E71F100030DDA4FF05F
:10106000000CD0EB0C006CEB01012D2308E0FF1D00
:1010700027F00707F7E80201EDE72B0504D52B233E
:101080008DF8283001233BE0EB0739D02023F7E728
:101090000A2000E010200021CDE9080107E010201F
:1010A000002145F00405CDE908014FF00808C5F31B
:1010B000025002280FD001CF00214FF0000A2B0769
:1010C0001FD5702A0DD0DDE908C38CF0100C5CEA46
:1010D000030C0CD015E0FF1D27F00707F7E802010D
:1010E000EBE740228DF828204FF0010A0BE050EA90
:1010F000010306D030238DF828308DF829200223F3
:101100009A46582A04D024A20DF120090B9209E036
:1011100026A2F9E7DDE90823FFF764F80B9B9B5C47
:1011200009F8013D50EA0102F4D1ADEB090020308D
:101130000890680701D44FF001080899884502DD3E
:10114000A8EB010000E000208046002506E00AA888
:101150005A46405D0F9990476D1C761C5545F6DB4D
:1011600004E030205A460F999047761CB8F10001F0
:10117000A8F10108F5DC05E019F8010B5A460F99B2
:101180009047761C0899481E08900029F4DC641CDE
:10119000C5E60000092801003031323334353637D6
:1011A00038396162636465660000000030313233B3
:1011B0003435363738394142434445460000000053
:1011C00070B504460D46E1B20548FFF720FE00BFAA
:1011D00080210348FFF750FD0028F9D0204670BD5C
:1011E00000100140FFF7ECF84FF480603B490880A5
:1011F000400008804000891C0880FFF70DFE38A0E1
:10120000FFF75EFEFFF77AFAFFF728FB3E4908601A
:10121000C820FFF75FF8FFF73FFB3C4908603A48FA
:101220000268084601683AA0FFF74AFE374800689E
:101230004549884240D145A0FFF742FE0020FFF714
:101240005FFB4AA0FFF73CFE142200214A48FFF74B
:10125000C3F9494949A0FFF733FE142200214D4844
:10126000FFF792F94B494CA0FFF72AFE1422494997
:101270004148FFF71AF84E490870084600780128DF
:101280000CD18002154908804000891C088040006C
:10129000891E088047A0FFF713FE1AE04FF4806014
:1012A0000E49891C08804000891E08804000088083
:1012B00049A0FFF705FE0CE04FF480600749891C48
:1012C00008804000891E0880400008804BA0FFF77E
:1012D000F7FDFFF797FB00BFFEE70000181C024078
:1012E0000D0AD5E2CAC7D2BBB8F631364DB4AED07E
:1012F000D0666C617368285732355131323829CA4B
:10130000B5D1E9200D0A0000280000202C000020A3
:101310000D0A466C61736849442069732030782552
:10132000582C20204D616E7566616374757265720C
:1013300020446576696365204944206973203078CC
:1013400025580D0A000000001940EF000D0ABCEC02
:10135000B2E2B5BD53504920464C41534820573264
:10136000355131323820210D0A0000006572617359
:1013700065206F6B0A000000100000200D0AD0B439
:10138000C8EBB5C4CAFDBEDDCEAAA3BA0D0A25734B
:1013900000000000380000200D0AB6C1B3F6B5C445
:1013A000CAFDBEDDCEAAA3BA0D0A25730000000057
:1013B000300000200D0A31364DB4AED0D0666C61DD
:1013C0007368285732355131323829B2E2CAD4B362
:1013D000C9B9A6210A0D00000D0A31364DB4AED0B0
:1013E000D0666C617368285732355131323829B272
:1013F000E2CAD4CAA7B0DC210A0D00000D0ABBF175
:10140000C8A1B2BBB5BD2057323551313238204961
:1014100044210A0D000000003814000800000020DC
:1014200038000000E00E00087014000838000020AA
:1014300018040000F00E0008000000000102030480
:10144000010203040607080957616E67796971692B
:101450006E672053504920466C617368000000009D
:10146000000000000000000000000000000000007C
:04000005080001AD41
:00000001FF
