:020000040800F2
:1000000018040020C101000899030008110300082A
:100010009503000835020008950A0008000000005A
:10002000000000000000000000000000790500084A
:1000300039020008000000004D0400089D07000878
:10004000DB010008DB010008DB010008DB01000820
:10005000DB010008DB010008DB010008DB01000810
:10006000DB010008DB010008DB010008DB01000800
:10007000DB010008DB010008DB010008DB010008F0
:10008000DB010008DB010008DB010008DB010008E0
:10009000DB010008DB010008DB010008DB010008D0
:1000A000DB010008DB010008DB010008DB010008C0
:1000B000DB010008DB010008DB010008DB010008B0
:1000C000DB010008DB010008DB010008DB010008A0
:1000D000DB01000811080008DB010008DB01000853
:1000E000DB010008DB010008DB010008DB01000880
:1000F000DB010008DB010008DB010008DB01000870
:10010000DB010008DB010008DB010008DB0100085F
:10011000DB010008DB010008DB010008DB0100084F
:10012000DB010008DB010008DB010008DB0100083F
:10013000DB010008DB010008DB010008DB0100082F
:10014000DB010008DB010008DB010008DB0100081F
:10015000DB010008DB010008DB010008DB0100080F
:10016000DB010008DB010008DB010008DB010008FF
:10017000DB010008DB010008DB010008DB010008EF
:10018000DB010008DB010008DB010008DB010008DF
:10019000DB010008DB010008DB010008DB010008CF
:1001A000DB010008DB010008DB010008DFF80CD0F0
:1001B00000F02EF800480047D90C00081804002071
:1001C0000648804706480047FEE7FEE7FEE7FEE7F1
:1001D000FEE7FEE7FEE7FEE7FEE7FEE7A50700080D
:1001E000AD01000830B50B46014600202022012455
:1001F00009E021FA02F59D4205D303FA02F5491BF5
:1002000004FA02F52844151EA2F10102F1DC30BD0A
:10021000064C074D06E0E06840F0010394E8070053
:1002200098471034AC42F6D3FFF7C4FF680D0008BE
:10023000880D000800BFFEE77047F0B50A460021B0
:100240000023002400BF3DE0012505FA01F31568F5
:1002500005EA03049C4234D105684F000326BE40E2
:10026000B543056015794E00B54006683543056015
:100270001579012D02D01579022D16D185684F0010
:100280000326BE40B543856055794E00B54086686B
:1002900035438560456801268E40B5434560456815
:1002A00096798E40B6B235434560C5684F00032647
:1002B000BE40B543C560D5794E00B540C6683543EC
:1002C000C560491C1029BFD3F0BDF0B50023002440
:1002D0004D07ED0E02FA05F3CE1000F1200555F89A
:1002E00026504E07F70E0F26BE40B543CF1000F143
:1002F000200646F82750CE1000F1200555F826506C
:1003000045EA0304CE1000F1200545F82640F0BD73
:1003100000BFFEE71CB50121882000F099F84FF4DA
:100320008060009001208DF8040000208DF8060008
:1003300001208DF8070000208DF80500694613485C
:10034000FFF77BFF4FF40060009069460F48FFF70E
:1003500074FF4FF48050009069460C48FFF76DFF22
:100360004FF40060009069460948FFF766FF4FF4BC
:10037000806006491A3108804000891E08804000CC
:100380000880401002491A3108801CBD001C024040
:10039000000C024000BFFEE7704708B54FF4A060B4
:1003A00000F04AF825208DF8000001208DF80100AA
:1003B0008DF802008DF80300684600F001F808BDD2
:1003C00070B5002100230F22C4781CB3174C246899
:1003D00004F4E064C4F5E064C4F30721C1F104044B
:1003E000E3B20A4144789C40E1B28478144021434E
:1003F0000C07210E0E4C05786155047804F01F059A
:100400000124AC4005786D11AD0005F1E025C5F87B
:10041000004109E0047804F01F050124AC40054DBB
:100420000678761145F8264070BD00000CED00E01E
:1004300000E400E080E100E002490143024A11606B
:10044000704700000000FA050CED00E07047000066
:1004500029B1064A12680243044B1A6004E0034AB9
:1004600012688243014B1A60704700003038024026
:1004700029B1064A12680243044B1A6004E0034A99
:1004800012688243014B1A607047000044380240F2
:10049000F0B5002100220024022500260223324F5D
:1004A0003F6807F00C0121B1042905D0082937D194
:1004B00005E02E4F076036E02D4F076033E02A4FEE
:1004C0003F1F3F68C7F38056274F3F1F3F6807F025
:1004D0003F036EB1264FB7FBF3F7DFF88CC0ACF1EA
:1004E000040CDCF800C0CCF3881C07FB0CF40CE017
:1004F0001E4FB7FBF3F7DFF870C0ACF1040CDCF86B
:1005000000C0CCF3881C07FB0CF4174F3F1F3F685B
:10051000C7F301477F1C7D00B4FBF5F7076002E0DD
:10052000124F076000BF00BF0F4F3F6807F0F00198
:100530000909104F7A5C0768D74047600A4F3F6847
:1005400007F4E051890A0B4F7A5C4768D74087600F
:10055000054F3F6807F46041490B064F7A5C4768D6
:10056000D740C760F0BD0000083802400024F40006
:1005700040787D0100000020704700000CB500208D
:10058000019000904148006840F480303F49086085
:1005900000BF3E48006800F4003000900198401C05
:1005A0000190009818B90198B0F5A04FF1D13748E3
:1005B000006800F4003010B10120009001E000203C
:1005C00000900098012860D130484030006840F029
:1005D00080502E49403108602D48006840F440406A
:1005E0002B4908602948083000682849083108600C
:1005F0000846006840F4004008600846006840F47F
:10060000A05008602348091F0860081F006840F0D8
:100610008070091F086000BF1C48006800F000706F
:100620000028F9D01A48006840F480301849086062
:1006300000BF1748406800F480300028F9D0144803
:10064000006840F400301249086000BF104840685C
:1006500000F400300028F9D040F205700E4908601F
:100660000A480830006820F0030008490831086093
:100670000846006840F00200086000BF03480830E8
:10068000006800F00C000828F8D10CBD00380240CA
:1006900000700040195A4007003C024010B50CA001
:1006A00000F0FAF94FF4E13115A000F0F5F91CA0C3
:1006B00000F0F2F927A000F0EFF92CA000F0ECF91F
:1006C0002EA000F0E9F931A000F0E6F910BD00001D
:1006D0000D0A20D5E2CAC7D2BBB8F6CDA8B9FDB481
:1006E000AEBFDACDA8D0C5D6B8C1EEBFD8D6C62029
:1006F00052474220B2CAB5C6CAB5D1E9200A0000A5
:10070000CAB9D3C32055534152543120B2CECAFD89
:10071000CEAAA3BA256420382D4E2D31200A000020
:10072000BFAAB7A2B0E5BDD3B5BDD6B8C1EEBAF386
:10073000BFD8D6C62052474220B2CAB5C6D1D5C905
:10074000ABA3ACD6B8C1EEB6D4D3A6C8E7CFC2A38C
:10075000BA0A000020D6B8C1EE202D2D2D2D2D2D4A
:1007600020B2CAB5C6D1D5C9AB200A002031202D90
:100770002D2D2D2D2D20BAEC200A00002032202D09
:100780002D2D2D2D2D20C2CC200A00002033202D10
:100790002D2D2D2D2D20C0B6200A000010B500F003
:1007A00035F810BD10B51548006840F470001349C5
:1007B00008601348006840F00100114908600020FB
:1007C0000F49083108600E4800680E4908400C497E
:1007D00008600D48091D0860081F006820F480208B
:1007E000091F0860002006490C310860FFF7C6FEAB
:1007F0004FF0006001498039086010BD88ED00E0CD
:1008000000380240FFFFF6FE103000247047000061
:1008100010B540F22551064800F025F838B10448DB
:1008200000F0DAF8C4B22146014800F0DAF810BD51
:100830000010014021B1828942F40052828104E01B
:1008400082894DF6FF731A4082817047024600206C
:10085000B1F5007F00D100BF13880B400BB1012020
:1008600000E00020704770B50246002400230025F8
:10087000002040F66A16B14200D100BFC1F3421514
:1008800001F01F03012606FA03F3012D02D1968918
:10089000334006E0022D02D1168A334001E0968AE9
:1008A00033400C12012606FA04F41688344013B1C2
:1008B0000CB1012000E0002070BDF0B5034600241B
:1008C00000260025002040F66A17B94200D100BF7B
:1008D0001846C1F3421401F01F06012707FA06F576
:1008E000012C01D10C3004E0022C01D1103000E0C9
:1008F00014301AB107682F43076002E00768AF435E
:100900000760F0BD2DE9FF4705460E460024A146CD
:1009100000BFA046B08900B100BF2C8A24F4405427
:10092000F08804432C82AC8941F20C608443B08887
:1009300031890843718908430443AC81AC8A24F4AB
:100940004074B0890443AC826846FFF7A1FD20489B
:10095000854202D01F48854202D1DDF80C9001E0AB
:10096000DDF80890A88900F4004040B109EBC90007
:1009700000EB091031684900B0FBF1F707E009EB23
:10098000C90000EB091031688900B0FBF1F7642061
:10099000B7FBF0F004012009642101FB1078A8895D
:1009A00000F4004040B1322000EBC800B0FBF1F091
:1009B00000F00700044308E0322000EB0810642137
:1009C000B0FBF1F000F00F0004432C81BDE8FF877D
:1009D000001001400014014001468888C0F308005F
:1009E0007047C1F3080282807047000000B587B0ED
:1009F00001210846FFF72CFD01211020FFF738FDEB
:100A000007220A212148FFF760FC072209211F481D
:100A1000FFF75BFC00208DF81A0001208DF81B0009
:100A200002208DF819008DF818000002059005A924
:100A30001648FFF702FC02208DF8180040020590CE
:100A400005A91248FFF7F9FB4FF4E13001900020AF
:100A5000ADF80800ADF80A00ADF80C00ADF81000D4
:100A60000C20ADF80E0001A90948FFF74BFFFFF776
:100A700094FC012240F225510548FFF71EFF012199
:100A80000348FFF7D7FE07B000BD0000000002409A
:100A90000010014000BFFEE70FB4054B10B503A9DD
:100AA000044A029800F018F810BC5DF814FB00002E
:100AB000B10C00081400002002E008C8121F08C191
:100AC000002AFAD170477047002001E001C1121FCF
:100AD000002AFBD1704700002DE9FF4F8BB09A46EA
:100AE0000F460546002606E025280BD052460D99F4
:100AF00090476D1C761C28780028F5D10FB0304641
:100B0000BDE8F08F0024A0460122604900E00443C4
:100B100015F8013F203B02FA03F00842F7D128788C
:100B20002E2817D115F8010F44F004042A280ED0FE
:100B30006FF02F022878A0F1300109290AD808EBBC
:100B4000880102EB410100EB01086D1CF2E757F848
:100B5000048B6D1C287869283ED006DC0028CDD097
:100B600063280BD0642804D136E0732810D0752890
:100B70004BD052460D999047761C85E017F8040B30
:100B80008DF8000000208DF80100E946012003E007
:100B900057F8049B4FF0FF3061074FF0000401D479
:100BA0000AE0641C44450DDA8442FADB19F80410AB
:100BB0000029F6D106E0641C8442FCDB19F804101D
:100BC0000029F8D1264404E019F8010B52460D998A
:100BD0009047641EF8D257E001CF4FF00A0B00286F
:100BE00002DA40422D2102E0210504D52B218DF8A7
:100BF0002410012103E0E10705D02021F7E70DF1E2
:100C0000200908910CE00021F9E701CF4FF00A0B11
:100C1000F9E75946FFF7E6FA01F1300209F8012D2C
:100C20000028F6D1ADEB090000F1200B600701D4DC
:100C30004FF00108D84502DDA8EB0B0000E00020D2
:100C40008046002406E009A85246005D0D999047B1
:100C5000641C761C08988442F5DB04E03020524680
:100C60000D999047761CB8F10001A8F10108F5DC58
:100C700005E019F8010B52460D999047761CBBF11F
:100C80000001ABF1010BF4DC6D1C34E70928010015
:100C900010B5044600BF20210448FFF7D7FD002807
:100CA000F9D00248FFF798FE10BD00000010014087
:100CB00070B504460D46E1B20548FFF792FE00BF4D
:100CC00080210348FFF7C2FD0028F9D0204670BDFF
:100CD00000100140FFF7DCBFFFF71CFBFFF786FEAB
:100CE000FFF7DCFC33E01A48FFF7F4FFC4B22146FB
:100CF00018A0FFF7D1FE312C04D0322C0CD0332CAD
:100D000021D115E04FF48060164908804000891E0B
:100D100008804000088019E04FF480601149891E66
:100D200008804000891C08804000891E08800DE072
:100D30004FF480600B49891E088040000880400005
:100D4000891C088002E0FFF7A9FC00BF00BFCAE7CA
:100D500010000020BDD3CAD5B5BDD7D6B7FBA3BA06
:100D600025630A001A1C0240880D000800000020BC
:100D700018000000B80A0008A00D000818000020A4
:100D800000040000C80A000800000000010203047B
:100D9000010203040607080900000000000000002B
:04000005080001AD41
:00000001FF
