:020000040800F2
:1000000080040020C1010008950600080D060008C4
:10001000910600082D020008DB080008000000001F
:10002000000000000000000000000000B906000809
:10003000710500080000000097060008DD070008B1
:10004000DB010008DB010008DB010008DB01000820
:10005000DB010008DB010008DB010008DB01000810
:10006000DB010008DB010008DB010008DB01000800
:10007000DB010008DB010008DB010008DB010008F0
:10008000DB010008DB010008DB010008DB010008E0
:10009000DB010008DB010008DB010008DB010008D0
:1000A000DB010008DB010008DB010008DB010008C0
:1000B000DB010008DB010008DB010008DB010008B0
:1000C000DB010008DB010008DB010008DB010008A0
:1000D000DB01000851080008DB010008DB01000813
:1000E000DB010008DB010008DB010008DB01000880
:1000F000DB010008DB010008DB010008DB01000870
:10010000DB010008DB010008DB010008DB0100085F
:10011000DB010008DB010008DB010008DB0100084F
:10012000DB010008DB010008DB010008DB0100083F
:10013000DB010008DB010008DB010008DB0100082F
:10014000DB010008DB010008DB010008DB0100081F
:10015000DB010008DB010008DB010008DB0100080F
:10016000DB010008DB010008DB010008DB010008FF
:10017000DB010008DB010008DB010008DB010008EF
:10018000DB010008DB010008DB010008DB010008DF
:10019000DB010008DB010008DB010008DB010008CF
:1001A000DB010008DB010008DB010008DFF80CD0F0
:1001B00000F018F800480047FD08000880040020FF
:1001C0000648804706480047FEE7FEE7FEE7FEE7F1
:1001D000FEE7FEE7FEE7FEE7FEE7FEE7E5070008CD
:1001E000AD010008064C074D06E0E06840F0010351
:1001F00094E8070098471034AC42F6D3FFF7DAFFD3
:10020000FC0900080C0A000810B5034607E018684E
:100210000C68A04201D0002010BD1B1D091D101E3E
:10022000A2F10104A2B2F2D10120F5E700BFFEE77E
:100230000246094B9A4201D2084801E006481038AC
:1002400001F000531BB1064B0B40C36002E0044BAE
:100250000B40836070470000106402400060024061
:100260007D0F7D0F21B1026842F00102026003E0C0
:10027000026822F0010202607047000010B590B0E1
:1002800042F2107000900121880500F005FA314813
:1002900000F06AF800BF2F4800F012F90028FAD1E8
:1002A00001902D4802902D4803908020049020203A
:1002B00005900001069040000790800008908000A3
:1002C000099000200A904FF400300B9000200C9011
:1002D00003200D9000200E900F9001A91D4800F002
:1002E0001BF91F491B48FFF7A3FF01211948FFF71E
:1002F000B9FF42F21070009000BF164800F0E0F81D
:10030000012804D0009C601E0090002CF5D10098BC
:10031000E8B91BE04FF48060124908804000891E54
:100320000880400008806FF07F4000F022F94FF411
:1003300080600C49891E08804000891C08804000AC
:10034000891E08806FF07F4000F013F9E2E710B0DB
:1003500010BD0000106402407C090008000000206D
:10036000200000101A1C0240016821F00101016008
:100370000021016041608160C16001612121416112
:100380004A49884204D13D21484A103A91608CE0A4
:1003900046491831884205D14FF47461434A103AF6
:1003A000916082E041493031884205D14FF47411A7
:1003B0003E4A103A916078E03C494831884205D184
:1003C0004FF07461394A103A91606EE037496031FC
:1003D000884204D13649354A103AD16065E0334944
:1003E0007831884204D13349304A103AD1605CE018
:1003F0002E499031884204D12F492C4A103AD160BD
:1004000053E02A49A831884205D14FF03D51274A8F
:10041000103AD16049E02949884204D13D21274A58
:10042000083A116041E025491831884205D14FF45E
:100430007461224A083A116037E02049303188421D
:1004400005D14FF474111D4A083A11602DE01B4983
:100450004831884205D14FF07461184A083A11605A
:1004600023E016496031884204D11149134A121F12
:1004700011601AE011497831884204D10D490F4AC0
:10048000121F116011E00D499031884204D10A49D0
:100490000A4A121F116008E00849A831884204D1B5
:1004A0004FF03D51054A121F116070471060024025
:1004B0003D000020400F002000003D20106402405D
:1004C000014600200A6802F001020AB1012000E0A2
:1004D0000020704730B503460A46002000240B4D2B
:1004E000AB4201D20A4901E00849103902F0005537
:1004F0000DB14C6800E00C68064D2C4004EA020582
:100500000DB1012000E0002030BD00001064024069
:10051000006002407D0F7D0F10B500220268134B72
:100520001A40CC680B6823434C6923438C692343EE
:10053000CC6923430C6A23434C6A23438C6A2343CC
:100540004C6B23438C6B23431A430260426922F0B5
:100550000702D1E90B3423431A4342610B6943601C
:100560004B6883608B68C36010BD00003F801CF047
:10057000704700E0401E0028FCD17047F0B50A46E5
:1005800000210023002400BF3DE0012505FA01F30E
:10059000156805EA03049C4234D105684F00032620
:1005A000BE40B543056015794E00B5400668354339
:1005B00005601579012D02D01579022D16D18568B7
:1005C0004F000326BE40B543856055794E00B540C7
:1005D000866835438560456801268E40B543456091
:1005E000456896798E40B6B235434560C5684F0080
:1005F0000326BE40B543C560D5794E00B540C668F8
:100600003543C560491C1029BFD3F0BD00BFFEE7CC
:100610001CB50121882000F03FF84FF48060009065
:1006200001208DF8040000208DF8060001208DF8CF
:10063000070000208DF8050069461348FFF79EFF6C
:100640004FF40060009069460F48FFF797FF4FF4A2
:100650008050009069460C48FFF790FF4FF400600F
:10066000009069460948FFF789FF4FF4806006490A
:100670001A3108804000891E088040000880401020
:1006800002491A3108801CBD001C0240000C0240C7
:1006900000BFFEE77047704729B1064A126802435F
:1006A000044B1A6004E0034A12688243014B1A604B
:1006B0007047000030380240704700000CB5002041
:1006C000019000904148006840F480303F49086044
:1006D00000BF3E48006800F4003000900198401CC4
:1006E0000190009818B90198B0F5A04FF1D13748A2
:1006F000006800F4003010B10120009001E00020FB
:1007000000900098012860D130484030006840F0E7
:1007100080502E49403108602D48006840F4404028
:100720002B490860294808300068284908310860CA
:100730000846006840F4004008600846006840F43D
:10074000A05008602348091F0860081F006840F097
:100750008070091F086000BF1C48006800F000702E
:100760000028F9D01A48006840F480301849086021
:1007700000BF1748406800F480300028F9D01448C2
:10078000006840F400301249086000BF104840681B
:1007900000F400300028F9D040F205700E490860DE
:1007A0000A480830006820F0030008490831086052
:1007B0000846006840F00200086000BF03480830A7
:1007C000006800F00C000828F8D10CBD0038024089
:1007D00000700040195A4007003C024010B500F07C
:1007E00035F810BD10B51548006840F47000134985
:1007F00008601348006840F00100114908600020BB
:100800000F49083108600E4800680E4908400C493D
:1008100008600D48091D0860081F006820F480204A
:10082000091F0860002006490C310860FFF746FFE9
:100830004FF0006001498039086010BD88ED00E08C
:1008400000380240FFFFF6FE103000247047000021
:1008500010B540F22551064800F00CF838B10448B4
:1008600000F032F8C4B22146014800F032F810BD61
:100870000010014070B5024600240023002500202E
:1008800040F66A16B14200D100BFC1F3421501F033
:100890001F03012606FA03F3012D02D19689334086
:1008A00006E0022D02D1168A334001E0968A3340D9
:1008B0000C12012606FA04F41688344013B10CB168
:1008C000012000E0002070BD01468888C0F30800C8
:1008D0007047C1F308028280704700BFFEE702E064
:1008E00008C8121F08C1002AFAD1704770470020BB
:1008F00001E001C1121F002AFBD17047FFF788FEFB
:100900004FF48060184908804000891C088040002E
:10091000891E08806FF07F40FFF72BFEFFF7AEFCCB
:1009200000BF12491248FFF7D5FD0028F9D0202258
:1009300010491148FFF768FC044654B94FF4806031
:100940000949891C08804000891E088040000880F1
:1009500008E04FF4806004490880400008804000AF
:10096000891C088000BFFEE7181C02402000001010
:1009700010640240000000207C090008040302010A
:10098000080706050C0B0A09100F0E0D141312119F
:10099000181716151C1B1A19201F1E1D242322218F
:1009A000282726252C2B2A29302F2E2D343332317F
:1009B000383736353C3B3A39403F3E3D444342416F
:1009C000484746454C4B4A49504F4E4D545352515F
:1009D000585756555C5B5A59605F5E5D646362614F
:1009E000686766656C6B6A69706F6E6D747372713F
:1009F000787776757C7B7A79807F7E7D0C0A00081B
:0C0A00000000002080040000EE08000848
:04000005080001AD41
:00000001FF
