:020000040800F2
:1000000000040020C1010008BD04000835040008F8
:10001000B904000809020008970700080000000062
:10002000000000000000000000000000C105000802
:100030000D020008000000007D05000825070008EB
:10004000DB010008DB010008DB010008DB01000820
:10005000DB010008DB01000811020008DB010008D9
:10006000DB010008DB010008DB010008DB01000800
:10007000DB010008DB010008DB010008DB010008F0
:10008000DB010008DB010008DB010008DB010008E0
:10009000DB010008DB010008DB010008DB010008D0
:1000A000DB010008DB010008DB010008DB010008C0
:1000B000DB010008DB010008DB010008DB010008B0
:1000C000DB010008DB010008DB010008DB010008A0
:1000D000DB010008DB010008DB010008DB01000890
:1000E00035020008DB010008DB010008DB01000825
:1000F000DB010008DB010008DB010008DB01000870
:10010000DB010008DB010008DB010008DB0100085F
:10011000DB010008DB010008DB010008DB0100084F
:10012000DB010008DB010008DB010008DB0100083F
:10013000DB010008DB010008DB010008DB0100082F
:10014000DB010008DB010008DB010008DB0100081F
:10015000DB010008DB010008DB010008DB0100080F
:10016000DB010008DB010008DB010008DB010008FF
:10017000DB010008DB010008DB010008DB010008EF
:10018000DB010008DB010008DB010008DB010008DF
:10019000DB010008DB010008DB010008DB010008CF
:1001A000DB010008DB010008DB010008DFF80CD0F0
:1001B00000F018F800480047B907000800040020C4
:1001C0000648804706480047FEE7FEE7FEE7FEE7F1
:1001D000FEE7FEE7FEE7FEE7FEE7FEE72D07000885
:1001E000AD010008064C074D06E0E06840F0010351
:1001F00094E8070098471034AC42F6D3FFF7DAFFD3
:10020000C4070008D407000800BFFEE770470000DD
:1002100010B5012000F028F840B10548006880F4CE
:10022000806003490860012000F018F810BD00004C
:10023000141C024010B54FF4005000F015F848B1FE
:100240000548006880F40060034908604FF40050DE
:1002500000F004F810BD0000141C024001490860C1
:1002600070470000143C014001460020034A126818
:100270000A400AB1012000E000207047143C014010
:10028000002123498279002A3AD00A46126803687D
:100290009A430B461A600A1D126803689A430B1DA5
:1002A0001A60027911440A6803681A430A60184AFE
:1002B0000832126803689A43154B08331A601A1DF6
:1002C000126803689A43124B0C331A604279102A61
:1002D0000ED11A1F126803681A430D4B08331A60B7
:1002E0001A1D126803681A43094B0C331A600DE09B
:1002F0000749427911440A6803681A430A6005E015
:10030000027911440A6803689A430A607047000042
:10031000003C01401FB50121052000F031F9012109
:10032000880300F03DF900F0CAF801200290002097
:100330008DF80C008DF80F0002A9184800F032F873
:100340000021084600F03EF90120009000208DF8C1
:10035000040008208DF8050001208DF8060068468D
:10036000FFF78EFF4FF40050029002A90C4800F0F6
:1003700019F80D21022000F025F94FF400500090EB
:1003800000208DF804000C208DF8050001208DF868
:1003900006006846FFF774FF1FBD00000000024022
:1003A00000080240F0B50A4600210023002400BFE7
:1003B0003DE0012505FA01F3156805EA03049C42B6
:1003C00034D105684F000326BE40B543056015795A
:1003D0004E00B5400668354305601579012D02D001
:1003E0001579022D16D185684F000326BE40B5430E
:1003F000856055794E00B54086683543856045680F
:1004000001268E40B5434560456896798E40B6B268
:1004100035434560C5684F000326BE40B543C560FF
:10042000D5794E00B540C6683543C560491C1029D2
:10043000BFD3F0BD00BFFEE71CB50121882000F04E
:100440009FF84FF48060009001208DF80400002098
:100450008DF8060001208DF8070000208DF80500BA
:1004600069461348FFF79EFF4FF40060009069460D
:100470000F48FFF797FF4FF48050009069460C48F3
:10048000FFF790FF4FF40060009069460948FFF7BE
:1004900089FF4FF4806006491A3108804000891EA8
:1004A000088040000880401002491A3108801CBDB5
:1004B000001C0240000C024000BFFEE7704708B578
:1004C0004FF4C06000F050F806208DF800000120C5
:1004D0008DF801008DF802008DF80300684600F0E9
:1004E00007F828208DF80000684600F001F808BDE4
:1004F00070B5002100230F22C4781CB3174C246868
:1005000004F4E064C4F5E064C4F30721C1F1040419
:10051000E3B20A4144789C40E1B28478144021431C
:100520000C07210E0E4C05786155047804F01F0568
:100530000124AC4005786D11AD0005F1E025C5F84A
:10054000004109E0047804F01F050124AC40054D8A
:100550000678761145F8264070BD00000CED00E0ED
:1005600000E400E080E100E002490143024A11603A
:10057000704700000000FA050CED00E07047000035
:1005800029B1064A12680243044B1A6004E0034A88
:1005900012688243014B1A607047000030380240F5
:1005A00029B1064A12680243044B1A6004E0034A68
:1005B00012688243014B1A607047000044380240C1
:1005C0007047000030B500228B071C0F0F2303FA81
:1005D00004F20B4B8C1053F824309343084C8D10CD
:1005E00044F8253023468C1053F824308C07240F10
:1005F00000FA04F42343024C8D1044F8253030BD3A
:10060000083801400CB50020019000904148006876
:1006100040F480303F49086000BF3E48006800F465
:10062000003000900198401C0190009818B9019882
:10063000B0F5A04FF1D13748006800F4003010B198
:100640000120009001E0002000900098012860D176
:1006500030484030006840F080502E4940310860FA
:100660002D48006840F440402B4908602948083074
:1006700000682849083108600846006840F40040D6
:1006800008600846006840F4A05008602348091F2D
:100690000860081F006840F08070091F086000BFF4
:1006A0001C48006800F000700028F9D01A48006863
:1006B00040F480301849086000BF1748406800F4D3
:1006C00080300028F9D01448006840F40030124906
:1006D000086000BF1048406800F400300028F9D0DE
:1006E00040F205700E4908600A480830006820F0A2
:1006F00003000849083108600846006840F002001D
:10070000086000BF03480830006800F00C000828AB
:10071000F8D10CBD0038024000700040195A400763
:10072000003C024010B500F035F810BD10B515487A
:10073000006840F47000134908601348006840F0F6
:1007400001001149086000200F49083108600E4877
:1007500000680E4908400C4908600D48091D0860F2
:10076000081F006820F48020091F08600020064947
:100770000C310860FFF746FF4FF0006001498039F7
:10078000086010BD88ED00E000380240FFFFF6FE73
:1007900010300024704700BFFEE702E008C8121FB7
:1007A00008C1002AFAD170477047002001E001C15A
:1007B000121F002AFBD17047FFF73EFEFFF7AAFD8C
:1007C00000BFFEE7D407000800000020000400007E
:0407D000AA0700086C
:04000005080001AD41
:00000001FF
