:020000040800F2
:1000000000040020C10100088104000889030008E1
:100010007D04000809020008FF0700080000000036
:100020000000000000000000000000006906000859
:100030000D02000800000000830400088D0700087E
:10004000DB010008DB010008DB010008DB01000820
:10005000DB010008DB010008DB010008DB01000810
:10006000DB010008DB010008DB010008DB01000800
:10007000DB010008DB010008DB010008DB010008F0
:10008000DB010008DB010008DB010008DB010008E0
:10009000DB010008DB010008DB010008DB010008D0
:1000A000DB010008DB010008DB010008DB010008C0
:1000B000DB010008DB010008DB010008DB010008B0
:1000C000DB010008DB010008DB010008DB010008A0
:1000D000DB010008DB010008DB010008DB01000890
:1000E000DB010008DB010008DB010008DB01000880
:1000F000DB010008DB010008DB010008DB01000870
:10010000DB010008DB010008DB010008DB0100085F
:10011000DB010008DB010008DB010008DB0100084F
:10012000DB010008DB010008DB010008DB0100083F
:10013000DB010008DB010008DB010008DB0100082F
:10014000DB010008DB010008DB010008DB0100081F
:10015000DB010008DB010008DB010008DB0100080F
:10016000DB010008DB010008DB010008DB010008FF
:10017000DB010008DB010008DB010008DB010008EF
:10018000DB010008DB010008DB010008DB010008DF
:10019000DB010008DB010008DB010008DB010008CF
:1001A000DB010008DB010008DB010008DFF80CD0F0
:1001B00000F018F80048004721080008000400205B
:1001C0000648804706480047FEE7FEE7FEE7FEE7F1
:1001D000FEE7FEE7FEE7FEE7FEE7FEE7950700081D
:1001E000AD010008064C074D06E0E06840F0010351
:1001F00094E8070098471034AC42F6D3FFF7DAFFD3
:10020000780800088808000800BFFEE7704701B5BD
:1002100002E00098401E009000980028F9D108BD27
:10022000F0B50A4600210023002400BF3DE001256F
:1002300005FA01F3156805EA03049C4234D1056808
:100240004F000326BE40B543056015794E00B5400A
:100250000668354305601579012D02D01579022D08
:1002600016D185684F000326BE40B5438560557999
:100270004E00B540866835438560456801268E404E
:10028000B5434560456896798E40B6B235434560C2
:10029000C5684F000326BE40B543C560D5794E0002
:1002A000B540C6683543C560491C1029BFD3F0BDB1
:1002B0002DE9FC4104460D4616461F4600200190DC
:1002C00000F0F0F8012000F053F900F0B1F90190CE
:1002D000019801284ED12948006840F080502749F4
:1002E00008602748006840F4404025490860002025
:1002F00000F032F94FF4805000F06AF94FF4A0504A
:1003000000F05AF933462A4621464FF48000009700
:1003100000F070F9012000F067F900BF392000F00B
:10032000F3F80028FAD01648006840F480301449E9
:10033000086000BF1248406800F480300028F9D0FF
:100340000F48006840F400300D49086000BF0C48B9
:10035000406800F400300028F9D040F205700949E7
:100360000860022000F058F900BF00F0EDF80828FE
:10037000FBD101E000BFFEE7BDE8FC814038024050
:1003800000700040003C024000BFFEE71CB50121A8
:10039000882000F077F84FF48060009001208DF8FD
:1003A000040000208DF8060001208DF807000020D1
:1003B0008DF8050069461348FFF732FF4FF40060DF
:1003C000009069460F48FFF72BFF4FF480500090D4
:1003D00069460C48FFF724FF4FF40060009069461F
:1003E0000948FFF71DFF4FF4806006491A31088065
:1003F0004000891E088040000880401002491A31E0
:1004000008801CBD001C0240000C02401CB50121EC
:10041000084600F037F84FF48070009003208DF804
:10042000050002208DF8040000208DF80600012050
:100430008DF8070069460248FFF7F2FE1CBD000078
:10044000000002401CB50121042000F01BF84FF40D
:100450000070009003208DF8050002208DF8040044
:1004600000208DF8060001208DF80700694602483B
:10047000FFF7D6FE1CBD00000008024000BFFEE7EB
:100480007047704729B1064A12680243044B1A604C
:1004900004E0034A12688243014B1A60704700006F
:1004A000303802401448006840F0010012490860EA
:1004B00000201149083108600F4800680F490840C2
:1004C0000D4908600E48091D08600E480A4984312C
:1004D00008600B481038091D08600748006820F4C0
:1004E000802005490860002003490C31086002495A
:1004F0008C3108607047000000380240FFFFF6EAC8
:10050000103000240030002010B5014600220023E6
:1005100000204A11012A02D10A4C236808E0022A6D
:1005200003D1084C7034236802E0064C743423680D
:1005300001F01F02012494401C400CB1012000E096
:10054000002010BD003802400248006800F00C0096
:10055000704700000838024001460020034A106836
:1005600020F0F00008431060704700000838024097
:100570000021024A1170114608707047023802408B
:1005800002460020044B186820F0EC6042EA0103A8
:100590001843014B1860704708380240024600209B
:1005A000044B186820F0784042EA01031843014BDD
:1005B000186070470838024001460020034A10685E
:1005C00020F4E050084310607047000008380240F3
:1005D00001460020034A106820F4604040EAC10050
:1005E00010607047083802400149086670470000F3
:1005F0000000474270B5049C41EA82150126C6EB13
:10060000530645EA0645054345EA0465014E356053
:1006100070BD00000438024001460020034A106803
:1006200020F00300084310607047000008380240C3
:1006300038B5002000900024002500BF3120FFF7CE
:1006400063FF05460098401C00900098B0F5A04F4D
:1006500001D0002DF2D03120FFF756FF08B1012460
:1006600000E00024204638BD704700000CB5002093
:10067000019000904148006840F480303F49086094
:1006800000BF3E48006800F4003000900198401C14
:100690000190009818B90198B0F5A04FF1D13748F2
:1006A000006800F4003010B10120009001E000204B
:1006B00000900098012860D130484030006840F038
:1006C00080502E49403108602D48006840F4404079
:1006D0002B4908602948083000682849083108601B
:1006E0000846006840F4004008600846006840F48E
:1006F000A05008602348091F0860081F006840F0E8
:100700008070091F086000BF1C48006800F000707E
:100710000028F9D01A48006840F480301849086071
:1007200000BF1748406800F480300028F9D0144812
:10073000006840F400301249086000BF104840686B
:1007400000F400300028F9D040F205700E4908602E
:100750000A480830006820F00300084908310860A2
:100760000846006840F00200086000BF03480830F7
:10077000006800F00C000828F8D10CBD00380240D9
:1007800000700040195A4007003C024010B500F0CC
:1007900035F810BD10B51548006840F470001349D5
:1007A00008601348006840F001001149086000200B
:1007B0000F49083108600E4800680E4908400C498E
:1007C00008600D48091D0860081F006820F480209B
:1007D000091F0860002006490C310860FFF746FF3A
:1007E0004FF0006001498039086010BD88ED00E0DD
:1007F00000380240FFFFF6FE10300024704700BFB3
:10080000FEE702E008C8121F08C1002AFAD17047AB
:100810007047002001E001C1121F002AFBD1704780
:10082000072302224FF4B4711920FFF741FDFFF7AF
:10083000ADFDFFF7EBFDFFF705FE00214FF4C00013
:10084000FFF79EFE00210846FFF7A8FE0EE04FF4DA
:100850008060074908800748FFF7D9FC4FF48060A3
:100860000349891E08800348FFF7D1FCEFE7000029
:100870001A1C0240FFFF1F0088080008000000202B
:0808800000040000120800084A
:04000005080001AD41
:00000001FF
