:020000040800F2
:1000000020040020C101000881050008F704000851
:100010007D05000835020008610B000800000000A3
:10002000000000000000000000000000AD06000815
:10003000150400080000000083050008D10700082F
:10004000DB010008DB010008DB010008DB01000820
:10005000DB010008DB010008DB010008DB01000810
:10006000DB010008DB010008DB010008DB01000800
:10007000DB010008DB010008DB010008DB010008F0
:10008000DB010008DB010008DB010008DB010008E0
:10009000DB010008DB010008DB010008DB010008D0
:1000A000DB010008DB010008DB010008DB010008C0
:1000B000DB010008DB010008DB010008DB010008B0
:1000C000DB010008DB010008DB010008DB010008A0
:1000D000DB01000845080008DB010008DB0100081F
:1000E000DB010008DB010008DB010008DB01000880
:1000F000DB010008DB010008DB010008DB01000870
:10010000DB010008DB010008DB010008DB0100085F
:10011000DB010008DB010008DB010008DB0100084F
:10012000DB010008DB010008DB010008DB0100083F
:10013000DB010008DB010008DB010008DB0100082F
:10014000DB010008DB010008DB010008DB0100081F
:10015000DB010008DB010008DB010008DB0100080F
:10016000DB010008DB010008DB010008DB010008FF
:10017000DB010008DB010008DB010008DB010008EF
:10018000DB010008DB010008DB010008DB010008DF
:10019000DB010008DB010008DB010008DB010008CF
:1001A000DB010008DB010008DB010008DFF80CD0F0
:1001B00000F02EF8004800471D0D00082004002024
:1001C0000648804706480047FEE7FEE7FEE7FEE7F1
:1001D000FEE7FEE7FEE7FEE7FEE7FEE7D9070008D9
:1001E000AD01000830B50B46014600202022012455
:1001F00009E021FA02F59D4205D303FA02F5491BF5
:1002000004FA02F52844151EA2F10102F1DC30BD0A
:10021000064C074D06E0E06840F0010394E8070053
:1002200098471034AC42F6D3FFF7C4FFBC0D00086A
:10023000DC0D000800BFFEE721B1026842F00102B8
:10024000026003E0026822F00102026070470000D1
:10025000016821F0010101600021016041608160BD
:10026000C1600161212141614A49884204D13D2197
:10027000484A103A91608CE046491831884205D1CD
:100280004FF47461434A103A916082E04149303141
:10029000884205D14FF474113E4A103A916078E0DB
:1002A0003C494831884205D14FF07461394A103ACF
:1002B00091606EE037496031884204D13649354A51
:1002C000103AD16065E033497831884204D133492E
:1002D000304A103AD1605CE02E499031884204D116
:1002E0002F492C4A103AD16053E02A49A83188425C
:1002F00005D14FF03D51274A103AD16049E02949D4
:10030000884204D13D21274A083A116041E025493D
:100310001831884205D14FF47461224A083A1160BD
:1003200037E020493031884205D14FF474111D4A1D
:10033000083A11602DE01B494831884205D14FF041
:100340007461184A083A116023E016496031884206
:1003500004D11149134A121F11601AE01149783172
:10036000884204D10D490F4A121F116011E00D4956
:100370009031884204D10A490A4A121F116008E0EC
:100380000849A831884204D14FF03D51054A121F57
:1003900011607047106002403D000020400F0020B7
:1003A00000003D2010640240014600200A6802F06F
:1003B00001020AB1012000E00020704710B50022C0
:1003C0000268134B1A40CC680B6823434C692343E3
:1003D0008C692343CC6923430C6A23434C6A23432F
:1003E0008C6A23434C6B23438C6B23431A43026078
:1003F000426922F00702D1E90B3423431A434261D8
:100400000B6943604B6883608B68C36010BD00005C
:100410003F801CF0704700E0401E0028FCD1704770
:10042000F0B50A4600210023002400BF3DE001256D
:1004300005FA01F3156805EA03049C4234D1056806
:100440004F000326BE40B543056015794E00B54008
:100450000668354305601579012D02D01579022D06
:1004600016D185684F000326BE40B5438560557997
:100470004E00B540866835438560456801268E404C
:10048000B5434560456896798E40B6B235434560C0
:10049000C5684F000326BE40B543C560D5794E0000
:1004A000B540C6683543C560491C1029BFD3F0BDAF
:1004B000F0B5002300244D07ED0E02FA05F3CE102F
:1004C00000F1200555F826504E07F70E0F26BE40C6
:1004D000B543CF1000F1200646F82750CE1000F1AA
:1004E000200555F8265045EA0304CE1000F12005FA
:1004F00045F82640F0BD00BFFEE700001CB5012115
:10050000882000F03FF84FF48060009001208DF8C3
:10051000040000208DF8060001208DF8070000205F
:100520008DF8050069461348FFF77AFF4FF4006025
:10053000009069460F48FFF773FF4FF4805000901A
:1005400069460C48FFF76CFF4FF400600090694665
:100550000948FFF765FF4FF4806006491A310880AB
:100560004000891E088040000880401002491A316E
:1005700008801CBD001C0240000C024000BFFEE7CA
:100580007047704729B1064A12680243044B1A604B
:1005900004E0034A12688243014B1A60704700006E
:1005A0003038024029B1064A12680243044B1A60EF
:1005B00004E0034A12688243014B1A60704700004E
:1005C00044380240F0B50021002200240225002614
:1005D0000223324F3F6807F00C0121B1042905D0F6
:1005E000082937D105E02E4F076036E02D4F076010
:1005F00033E02A4F3F1F3F68C7F38056274F3F1F06
:100600003F6807F03F036EB1264FB7FBF3F7DFF803
:100610008CC0ACF1040CDCF800C0CCF3881C07FBE8
:100620000CF40CE01E4FB7FBF3F7DFF870C0ACF131
:10063000040CDCF800C0CCF3881C07FB0CF4174F4B
:100640003F1F3F68C7F301477F1C7D00B4FBF5F7F0
:10065000076002E0124F076000BF00BF0F4F3F6806
:1006600007F0F0010909104F7A5C0768D74047602E
:100670000A4F3F6807F4E051890A0B4F7A5C4768DC
:10068000D7408760054F3F6807F46041490B064F2C
:100690007A5C4768D740C760F0BD00000838024068
:1006A0000024F40040787D01000000207047000025
:1006B0000CB50020019000904148006840F4803063
:1006C0003F49086000BF3E48006800F400300090D9
:1006D0000198401C0190009818B90198B0F5A04FFE
:1006E000F1D13748006800F4003010B101200090CB
:1006F00001E0002000900098012860D1304840308F
:10070000006840F080502E49403108602D48006854
:1007100040F440402B4908602948083000682849C7
:10072000083108600846006840F400400860084648
:10073000006840F4A05008602348091F0860081FA3
:10074000006840F08070091F086000BF1C48006806
:1007500000F000700028F9D01A48006840F480309A
:100760001849086000BF1748406800F4803000282E
:10077000F9D01448006840F400301249086000BF06
:100780001048406800F400300028F9D040F20570AD
:100790000E4908600A480830006820F00300084944
:1007A000083108600846006840F00200086000BF99
:1007B00003480830006800F00C000828F8D10CBD90
:1007C0000038024000700040195A4007003C0240C7
:1007D00010B500F035F810BD10B51548006840F4AC
:1007E0007000134908601348006840F00100114987
:1007F000086000200F49083108600E4800680E4963
:1008000008400C4908600D48091D0860081F006871
:1008100020F48020091F0860002006490C31086080
:10082000FFF746FF4FF0006001498039086010BDB6
:1008300088ED00E000380240FFFFF6FE1030002493
:100840007047000010B540F22551064800F073F8DB
:1008500038B1044800F028F9C4B22146014800F03C
:1008600028F910BD0010014021B1828942F40052E4
:10087000828104E082894DF6FF731A4082817047BD
:100880001AB1838A0B43838202E0838A8B4383827B
:100890007047000000B58FB001218805FFF772FE98
:1008A0001B48FFF7D5FC00BF1948FFF77DFD002866
:1008B000FAD14FF00060009016480190164802905F
:1008C0004020039005200490002005904FF48060A4
:1008D00006900020079008904FF480700990000265
:1008E0000A9000200B9003200C9000200D900E9099
:1008F00069460748FFF762FD01210548FFF79CFCA8
:1009000000BF0348FFF750FD0128FAD10FB000BD2A
:10091000B86402400410014010000020024600208C
:10092000B1F5007F00D100BF13880B400BB101204F
:1009300000E00020704770B5024600240023002527
:10094000002040F66A16B14200D100BFC1F3421543
:1009500001F01F03012606FA03F3012D02D1968947
:10096000334006E0022D02D1168A334001E0968A18
:1009700033400C12012606FA04F41688344013B1F1
:100980000CB1012000E0002070BDF0B5034600244A
:1009900000260025002040F66A17B94200D100BFAA
:1009A0001846C1F3421401F01F06012707FA06F5A5
:1009B000012C01D10C3004E0022C01D1103000E0F8
:1009C00014301AB107682F43076002E00768AF438D
:1009D0000760F0BD2DE9FF4705460E460024A146FD
:1009E00000BFA046B08900B100BF2C8A24F4405457
:1009F000F08804432C82AC8941F20C608443B088B7
:100A000031890843718908430443AC81AC8A24F4DA
:100A10004074B0890443AC826846FFF7D3FD204898
:100A2000854202D01F48854202D1DDF80C9001E0DA
:100A3000DDF80890A88900F4004040B109EBC90036
:100A400000EB091031684900B0FBF1F707E009EB52
:100A5000C90000EB091031688900B0FBF1F7642090
:100A6000B7FBF0F004012009642101FB1078A8898C
:100A700000F4004040B1322000EBC800B0FBF1F0C0
:100A800000F00700044308E0322000EB0810642166
:100A9000B0FBF1F000F00F0004432C81BDE8FF87AC
:100AA000001001400014014001468888C0F308008E
:100AB0007047C1F3080282807047000000B587B01C
:100AC00001210846FFF75EFD01211020FFF76AFDB6
:100AD00007220A212048FFF7EBFC072209211E48C4
:100AE000FFF7E6FC00208DF81A0001208DF81B00AE
:100AF00002208DF819008DF818000002059005A954
:100B00001548FFF78DFC02208DF818004002059073
:100B100005A91148FFF784FC4FF4E1300190002053
:100B2000ADF80800ADF80A00ADF80C00ADF8100003
:100B30000C20ADF80E0001A90848FFF74BFF012279
:100B400040F225510548FFF720FF01210348FFF738
:100B50008BFE07B000BD0000000002400010014005
:100B600000BFFEE70FB4054B10B503A9044A029875
:100B700000F018F810BC5DF814FB0000F90C000838
:100B80001800002002E008C8121F08C1002AFAD18C
:100B900070477047002001E001C1121F002AFBD1FD
:100BA000704700002DE9FF4F89B09B4604460025A1
:100BB00006E025280BD05A460B999047641C6D1C03
:100BC00020780028F5D10DB02846BDE8F08F002729
:100BD000B8460122474900E0074314F8013F203B93
:100BE00002FA03F00842F7D120782E2819D114F820
:100BF000010F47F004072A280ED06FF02F0220784B
:100C0000A0F1300109290CD808EB880102EB410161
:100C100000EB0108641CF2E70A98641C50F8048B8E
:100C20000A9020780028CED0642808D0692806D001
:100C300075281ED05A460B9990476D1C58E00A99AA
:100C40004FF00A0901C90A91002802DA40422D2119
:100C500002E0390504D52B218DF82010012103E095
:100C6000F90704D02021F7E78A4608AE0DE00021FD
:100C7000FAE70A994FF00A0901C90A91F7E74946CC
:100C8000FFF7B0FA303106F8011D0028F7D1ADEBBF
:100C9000060000F12009780701D44FF00108C8458B
:100CA00002DDA8EB090000E000208046002706E0F6
:100CB00008A85A46C05D0B9990476D1C7F1C57458C
:100CC000F6DB04E030205A460B9990476D1CB8F1D2
:100CD0000001A8F10108F5DC05E016F8010B5A4601
:100CE0000B9990476D1CB9F10001A9F10109F4DCE1
:100CF000641C65E70928010070B504460D46E1B2A1
:100D00000548FFF7D6FE00BF80210348FFF706FE27
:100D10000028F9D0204670BD00100140FFF7CEFE3C
:100D2000FFF7B8FDFFF7EAFB4FF480601B4908802E
:100D30004000891C08804000891E088018A0FFF729
:100D400011FF002405E004F141001A490855601C18
:100D500084B2052CF7DB012280211748FFF790FDB4
:100D60001AE04FF480600D49088040000880400080
:100D7000891C08806FF07F40FFF74DFB4FF48060C7
:100D80000649891C08804000891E088040000880B0
:100D90006FF07F40FFF73FFBE3E70000181C0240C5
:100DA00048454C4C4F205541525420444D4120540D
:100DB000455354001000002000100140DC0D0008D5
:100DC000000000201C000000840B0008F80D000843
:100DD0001C00002004040000940B00080000000028
:100DE00001020304010203040607080900000000D1
:080DF0000000000000000000FB
:04000005080001AD41
:00000001FF
