:020000040800F2
:1000000018040020C1010008490B000887030008FC
:10001000450B0008AB020008AD100008000000000E
:10002000000000000000000000000000950C000827
:10003000AF020008000000004B0B0008B90D0008DB
:10004000DB010008DB010008DB010008DB01000820
:10005000DB010008DB010008DB010008DB01000810
:10006000DB010008DB010008DB010008DB01000800
:10007000DB010008DB010008DB010008DB010008F0
:10008000DB010008DB010008DB010008DB010008E0
:10009000DB010008DB010008DB010008DB010008D0
:1000A000DB010008DB010008DB010008DB010008C0
:1000B000DB010008DB010008DB010008DB010008B0
:1000C000DB010008DB010008DB010008DB010008A0
:1000D000DB0100082D0E0008DB010008DB01000831
:1000E000DB010008DB010008DB010008DB01000880
:1000F000DB010008DB010008DB010008DB01000870
:10010000DB010008DB010008DB010008DB0100085F
:10011000DB010008DB010008DB010008DB0100084F
:10012000DB010008DB010008DB010008DB0100083F
:10013000DB010008DB010008DB010008DB0100082F
:10014000DB010008DB010008DB010008DB0100081F
:10015000DB010008DB010008DB010008DB0100080F
:10016000DB010008DB010008DB010008DB010008FF
:10017000DB010008DB010008DB010008DB010008EF
:10018000DB010008DB010008DB010008DB010008DF
:10019000DB010008DB010008DB010008DB010008CF
:1001A000DB010008DB010008DB010008DFF80CD0F0
:1001B00000F04AF8004800477915000818040020AC
:1001C0000648804706480047FEE7FEE7FEE7FEE7F1
:1001D000FEE7FEE7FEE7FEE7FEE7FEE7C10D0008EB
:1001E000AD0100082DE9F05F0546002092469B46D0
:1001F00088460646814640241BE02846414647463D
:10020000224600F042F853465A46C01A914110D394
:1002100011461846224600F029F82D1A67EB01080E
:100220004F4622460120002100F020F817EB00097C
:100230004E41201EA4F10104DFDC484631462A4627
:100240004346BDE8F09F0000064C074D06E0E0681D
:1002500040F0010394E8070098471034AC42F6D30D
:10026000FFF7A8FF3416000854160008202A04DB04
:10027000203A00FA02F1002070479140C2F12003B9
:1002800020FA03F3194390407047202A04DB203AF8
:1002900021FA02F00021704721FA02F3D040C2F1A6
:1002A0002002914008431946704700BFFEE770479F
:1002B000F0B50A4600210023002400BF3DE00125DF
:1002C00005FA01F3156805EA03049C4234D1056878
:1002D0004F000326BE40B543056015794E00B5407A
:1002E0000668354305601579012D02D01579022D78
:1002F00016D185684F000326BE40B5438560557909
:100300004E00B540866835438560456801268E40BD
:10031000B5434560456896798E40B6B23543456031
:10032000C5684F000326BE40B543C560D5794E0071
:10033000B540C6683543C560491C1029BFD3F0BD20
:10034000F0B5002300244D07ED0E02FA05F3CE10A0
:1003500000F1200555F826504E07F70E0F26BE4037
:10036000B543CF1000F1200646F82750CE1000F11B
:10037000200555F8265045EA0304CE1000F120056B
:1003800045F82640F0BD00BFFEE721B1028842F4E7
:100390008062028004E002884FF6FF331A40028038
:1003A000704770B502460024002500230020958A7E
:1003B000138B1B0445EA030626F07F4404EA01067A
:1003C0008E4201D1012000E0002070BD002221F00A
:1003D0007F42D3438382704721B1028842F00102F9
:1003E000028004E002884FF6FE731A4002807047D4
:1003F0002DE9F04106460F4615464FF4204409E02A
:10040000201EA4F1010405D1092000F0AFFAC0B20A
:10041000BDE8F0814FF40031534800F0E5F90028C1
:10042000EED10121504800F0C7F94FF4805408E0A4
:10043000201EA4F1010404D10A2000F097FAC0B2F2
:10044000E6E74A494848FFF7ACFF0028F0D0002211
:10045000A021454800F080FA4FF4805408E0201EA7
:10046000A4F1010404D10B2000F080FAC0B2CFE760
:100470003F493D48FFF795FF0028F0D001213A4859
:10048000FFF7AAFF3946384800F06EFA4FF480545F
:1004900008E0201EA4F1010404D10C2000F066FA4B
:1004A000C0B2B5E73249891C2F48FFF77AFF002810
:1004B000EFD001212C4800F07FF94FF4805408E080
:1004C000201EA4F1010404D10D2000F04FFAC0B2A7
:1004D0009EE726492448FFF764FF0028F0D0012258
:1004E000A021214800F038FA4FF4805408E0201E83
:1004F000A4F1010404D10E2000F038FAC0B287E75D
:100500001A49491C1848FFF74CFF0028EFD023E098
:10051000012D07D100211448FFF737FF01211248B0
:1005200000F056F94FF4204408E0201EA4F1010425
:1005300004D1032000F01AFAC0B269E70B493F3139
:100540000948FFF72EFF0028EFD0074800F000FA17
:100550003070761C681E85B2002DD9D10121024869
:10056000FFF713FF012053E7005400400100030090
:10057000820007002DE9F04104460D46164600278B
:100580000CE000F07DF82046641C29466B1CDDB2AF
:1005900000F00AF800F0FF08781C87B2B742F0DBE1
:1005A0004046BDE8F081000070B505460E460121C9
:1005B0002D4800F001F94FF4805406E0201EA4F10C
:1005C000010402D100F0D2F970BD28492648FFF796
:1005D000E8FE0028F2D00022A021234800F0BCF958
:1005E0004FF4805407E0201EA4F1010403D1012040
:1005F00000F0BCF9E8E71E491B48FFF7D2FE0028CF
:10060000F1D03146184800F0AFF94FF4805407E0BC
:10061000201EA4F1010403D1022000F0A7F9D3E7C2
:100620001349891C1048FFF7BCFE0028F0D0297838
:100630000D4800F099F94FF4805407E0201EA4F112
:10064000010403D1032000F091F9BDE70849891C9A
:100650000548FFF7A6FE0028F0D00121024800F06F
:10066000B7F80120B0E7000000540040010003008B
:100670008200070010B500F071F800F047F910BDD6
:100680001CB50020019000904FF4204408E0201E8B
:10069000A4F1010404D1142000F068F9C0B21CBD1B
:1006A0004FF400312A4800F09FF80028EFD14EE0C7
:1006B0000121274800F080F84FF4805408E0201E04
:1006C000A4F1010404D1152000F050F9C0B2E6E70E
:1006D00020491F48FFF765FE0028F0D00022A02126
:1006E0001B4800F039F94FF4204400BF184814307B
:1006F00000880190201EA4F1010404D1162000F00E
:1007000035F9C0B2CBE7BDF8040040F20241084021
:100710000028EBD0BDF8040000F0020040B10C4806
:100720001830008801210A4800F052F80120B6E78D
:1007300009490748FFF74AFE0098411C0091B0F5AF
:10074000967F04D1172000F011F9C0B2A7E7AFE7F8
:100750000054004001000300000400101CB50121FA
:10076000480500F003FA0121022000F0EFF904220D
:1007700006211048FFF7E4FD042207210D48FFF78A
:10078000DFFD4020009002208DF804008DF8050068
:1007900001208DF8060000208DF807006946054805
:1007A000FFF786FD8020009069460248FFF780FD34
:1007B0001CBD00000004024021B1028842F4807296
:1007C000028004E002884FF6FF631A4002807047FF
:1007D00021B1028842F40072028004E002884FF6E0
:1007E000FF531A40028070470CB5024600200023D8
:1007F0000193009300920B0F019321F07F41019B25
:100800001BB1009B1433009303E0090C009B1833C9
:100810000093009B1B680B400BB1012000E00020FF
:100820000CBD00002DE9FF4704460D460026B146E9
:100830000427DFF8CC80A6884FF6C07006406846D3
:1008400000F0B4F9DDF808802E48B8FBF0F01FFA8C
:1008500080F946EA0906A68020884FF6FE71084016
:10086000208000262849286888420CD82868400043
:10087000B8FBF0F087B2042F00DA04273E4309F1F9
:100880000100208427E0E8884BF6FF71884206D1FA
:10089000286800EB4000B8FBF0F087B209E0286858
:1008A00000EBC00101EB0010B8FBF0F087B247F499
:1008B0008047C7F30B0008B947F0010747F4004031
:1008C00006434FF4967009FB00F04FF47A7190FBE9
:1008D000F1F0401C2084A683208840F00100208095
:1008E00026884FF6F5300640A888698908430643F4
:1008F0002680A889298908432081BDE8FF87000058
:1009000000127A0040420F00A08601001FB50020AF
:10091000ADF804004BF6FF70ADF806000A20ADF804
:1009200008004FF48060ADF80A000001ADF80C003B
:100930000548009069460548FFF774FF0121034808
:10094000FFF74AFD1FBD0000801A0600005400405A
:100950000146088AC0B2704712B141F0010101E0BE
:1009600001F0FE01018270470182704710B5044614
:10097000214602A000F09CFB002010BD493243201C
:10098000B5C8B4FDB3ACCAB1216572726F72436F62
:100990006465203D2025640010B5ADF5007D2DA0D7
:1009A00000F086FB002413E040A90C5540A8015D2F
:1009B0002BA000F07DFBE11704EB11710911A4EBF2
:1009C00001110F2902D128A000F072FB601C84B233
:1009D000FF2CE9DD4FF48072002140A8FFF7CAFD2B
:1009E00022A000F065FB23A000F062FB4FF48072B0
:1009F00000216846FFF7FCFC002423E01DF80400FA
:100A000040A9095D88420BD01DF8041014A000F025
:100A10004FFB1BA000F04CFB00200DF5007D10BD2E
:100A20001DF804100EA000F043FBE11704EB117158
:100A30000911A4EB01110F2902D10BA000F038FB22
:100A4000601C84B2FF2CD9DD17A000F031FB01201F
:100A5000E3E70000D0B4C8EBB5C4CAFDBEDD0000BA
:100A600030782530325820000A0D0000D0B4BDE1A6
:100A7000CAF80000B6C1B3F6B5C4CAFDBEDD0000B9
:100A8000B4EDCEF33A49324320454550524F4D2004
:100A9000D0B4C8EBD3EBB6C1B3F6B5C4CAFDBEDD66
:100AA000B2BBD2BBD6C200004932432841543234D3
:100AB00043303229B6C1D0B4B2E2CAD4B3C9B9A660
:100AC000000000001CB50121882000F03FF84FF421
:100AD0008060009001208DF8040000208DF8060051
:100AE00001208DF8070000208DF8050069461348A5
:100AF000FFF7DEFB4FF40060009069460F48FFF7F8
:100B0000D7FB4FF48050009069460C48FFF7D0FBAC
:100B10004FF40060009069460948FFF7C9FB4FF4A5
:100B2000806006491A3108804000891E0880400014
:100B30000880401002491A3108801CBD001C024088
:100B4000000C024000BFFEE77047704729B1064A1B
:100B500012680243044B1A6004E0034A126882439D
:100B6000014B1A60704700003038024029B1064A34
:100B700012680243044B1A6004E0034A126882437D
:100B8000014B1A60704700004038024029B1064A04
:100B900012680243044B1A6004E0034A126882435D
:100BA000014B1A607047000044380240F0B5002144
:100BB00000220024022500260223324F3F6807F05E
:100BC0000C0121B1042905D0082937D105E02E4FA9
:100BD000076036E02D4F076033E02A4F3F1F3F6824
:100BE000C7F38056274F3F1F3F6807F03F036EB1A2
:100BF000264FB7FBF3F7DFF88CC0ACF1040CDCF840
:100C000000C0CCF3881C07FB0CF40CE01E4FB7FBB4
:100C1000F3F7DFF870C0ACF1040CDCF800C0CCF3E3
:100C2000881C07FB0CF4174F3F1F3F68C7F30147B1
:100C30007F1C7D00B4FBF5F7076002E0124F0760F0
:100C400000BF00BF0F4F3F6807F0F0010909104FC8
:100C50007A5C0768D74047600A4F3F6807F4E05165
:100C6000890A0B4F7A5C4768D7408760054F3F6819
:100C700007F46041490B064F7A5C4768D740C7606C
:100C8000F0BD0000083802400024F40040787D01E7
:100C900000000020704700000CB50020019000907B
:100CA0004148006840F480303F49086000BF3E483A
:100CB000006800F4003000900198401C01900098FA
:100CC00018B90198B0F5A04FF1D13748006800F489
:100CD000003010B10120009001E000200090009849
:100CE000012860D130484030006840F080502E49E3
:100CF000403108602D48006840F440402B490860AE
:100D0000294808300068284908310860084600680A
:100D100040F4004008600846006840F4A0500860B5
:100D20002348091F0860081F006840F08070091FF1
:100D3000086000BF1C48006800F000700028F9D06F
:100D40001A48006840F480301849086000BF17480E
:100D5000406800F480300028F9D01448006840F45E
:100D600000301249086000BF1048406800F40030AD
:100D70000028F9D040F205700E4908600A48083092
:100D8000006820F003000849083108600846006840
:100D900040F00200086000BF03480830006800F01F
:100DA0000C000828F8D10CBD00380240007000404B
:100DB000195A4007003C024010B500F035F810BD4C
:100DC00010B51548006840F47000134908601348D6
:100DD000006840F001001149086000200F49083107
:100DE00008600E4800680E4908400C4908600D482C
:100DF000091D0860081F006820F48020091F086092
:100E0000002006490C310860FFF746FF4FF00060F4
:100E100001498039086010BD88ED00E000380240CB
:100E2000FFFFF6FE103000247047000010B540F2BE
:100E30002551064800F025F838B1044800F0DAF8EA
:100E4000C4B22146014800F0DAF810BD001001409C
:100E500021B1828942F40052828104E082894DF6F8
:100E6000FF731A408281704702460020B1F5007F6F
:100E700000D100BF13880B400BB1012000E000201F
:100E8000704770B50246002400230025002040F67C
:100E90006A16B14200D100BFC1F3421501F01F0331
:100EA000012606FA03F3012D02D19689334006E0AC
:100EB000022D02D1168A334001E0968A33400C128B
:100EC000012606FA04F41688344013B10CB101204F
:100ED00000E0002070BDF0B5034600240026002588
:100EE000002040F66A17B94200D100BF1846C1F38E
:100EF000421401F01F06012707FA06F5012C01D163
:100F00000C3004E0022C01D1103000E014301AB192
:100F100007682F43076002E00768AF430760F0BD32
:100F20002DE9FF4705460E460024A14600BFA04616
:100F3000B08900B100BF2C8A24F44054F0880443E7
:100F40002C82AC8941F20C608443B088318908431B
:100F5000718908430443AC81AC8A24F44074B0899D
:100F60000443AC826846FFF721FE2048854202D048
:100F70001F48854202D1DDF80C9001E0DDF80890B1
:100F8000A88900F4004040B109EBC90000EB09104A
:100F900031684900B0FBF1F707E009EBC90000EB4D
:100FA000091031688900B0FBF1F76420B7FBF0F05D
:100FB00004012009642101FB1078A88900F4004095
:100FC00040B1322000EBC800B0FBF1F000F00700A8
:100FD000044308E0322000EB08106421B0FBF1F07C
:100FE00000F00F0004432C81BDE8FF870010014092
:100FF0000014014001468888C0F308007047C1F31F
:10100000080282807047000000B587B001210846C1
:10101000FFF79CFD01211020FFF7B8FD07220A21F0
:101020002048FFF78DF9072209211E48FFF788F9AC
:1010300000208DF81A0001208DF81B0002208DF889
:1010400019008DF818000002059005A91548FFF752
:101050002FF902208DF818004002059005A91148CB
:10106000FFF726F94FF4E13001900020ADF80800B9
:10107000ADF80A00ADF80C00ADF810000C20ADF88A
:101080000E0001A90848FFF74BFF012240F225514D
:101090000548FFF720FF01210348FFF7D9FE07B0FD
:1010A00000BD0000000002400010014000BFFEE74C
:1010B0000FB4054B10B503A9044A029800F018F8C4
:1010C00010BC5DF814FB000055150008100000204E
:1010D00002E008C8121F08C1002AFAD17047704701
:1010E000002001E001C1121F002AFBD1704700005F
:1010F0002DE9FF4F8DB00F460546002606E0252856
:101100000BD0DDE90F1290476D1C761C2878002863
:10111000F5D111B03046BDE8F08F0024A246A146BB
:101120000122EC4900E0044315F8013F203B02FA9C
:1011300003F00842F7D128782A2810D06FF02F0248
:101140002878A0F13001092914D80AEB8A0102EBB2
:10115000410144F0020400EB010A6D1CF0E701CFED
:101160005FEA000A03D544F40054CAF1000A44F0CF
:1011700002046D1C28782E2817D115F8010F44F0B1
:1011800004042A280ED06FF02F022878A0F1300135
:1011900009290AD809EB890102EB410100EB010999
:1011A0006D1CF2E757F8049B6D1C28786C280FD053
:1011B00006DC4C2817D068280DD06A2814D104E02A
:1011C000742810D07A280FD10DE044F400140AE0FE
:1011D00044F4801401E044F440146978814202D15F
:1011E00004F580146D1C6D1C2A786E2A1FD00CDC4F
:1011F000632A31D004DC002A8BD0582A11D1A3E015
:10120000642A68D0692A0CD165E0732A2ED004DCE8
:101210006F2A73D0702A04D19BE0752A6FD0782A88
:101220006ED01046DDE90F129047761C50E1C4F3F2
:101230000250022806D0032809D0042801CF09D083
:10124000066045E101CFF117C0E9006140E101CF3F
:1012500006803DE106703BE117F8040B8DF80000B5
:1012600000208DF80100EB46012003E057F804BB95
:101270004FF0FF3061074FF0000102D40DE008F19C
:101280000101884649450FDA8045F8DB1BF8081054
:101290000029F4D108E008F1010188468142FADB17
:1012A0001BF808100029F6D1DDE90F23AAEB08008E
:1012B0008146214600F036F9304400EB080604E090
:1012C000DDE90F121BF8010B9047B8F10108F7D2C6
:1012D00021464846F7E00A21C4F302534FF0000BC1
:1012E0000891022B04D001CFC117032B09D00AE0CB
:1012F000FF1D27F00707F7E8020108E032E01FE0D2
:1013000020E000B2C117042B01D140B2C117031E67
:1013100071F1000307DA4FF0000CD0EB0C006CEB1E
:1013200001012D2302E0230504D52B238DF8243061
:10133000012303E0E30701D02023F7E7984658E0B4
:101340000A2110E010210EE010204FF0000B089051
:101350000CE010214FF0000B44F004044FF008099A
:10136000089103E008214FF0000B0891C4F30253E9
:10137000022B04D001CF0021032B06D006E0FF1D75
:1013800027F00707F7E8020103E080B2042B00D141
:10139000C0B24FF0000823072BD5702A07D0DDF824
:1013A00020C08CF0100C5CEA0B0C05D00EE0402342
:1013B0008DF82430012308E050EA010306D03023E1
:1013C0008DF824308DF8252002239846DDF820C0C2
:1013D0008CF0080C5CEA0B0C0BD150EA010301D134
:1013E000630706D530238DF824304FF00108A9F1AA
:1013F0000109582A04D038A20B9208AA0A920BE0DD
:101400003AA2F9E75B46089AFEF7ECFE0B9B9B5C61
:101410000A9A521E0A92137050EA0102F2D10A98F7
:10142000ADEB000000F1200B600702D524F48034FE
:1014300001E04FF00109D94502DDA9EB0B0000E006
:10144000002000EB0B0141440890AAEB010AE003E5
:1014500006D4DDE90F232146504600F063F8064428
:101460004FF0000908E009A911F80900DDE90F12A1
:10147000904709F10109761CC145F4DBE0030CD566
:10148000DDE90F232146504600F04CF8064404E005
:10149000DDE90F1230209047761C0899481E08900D
:1014A0000029F5DC08E00A980A990078491C0A919D
:1014B000DDE90F129047761CBBF10001ABF1010B87
:1014C000F1DC21465046DDE90F2300F019F806440F
:1014D0006D1C1BE6092801003031323334353637B4
:1014E0003839616263646566000000003031323370
:1014F0003435363738394142434445460000000010
:101500002DE9F041044600251E461746880404D400
:1015100005E039462020B0476D1C641EF9D52846E9
:10152000BDE8F0812DE9F041044600251E469046B5
:10153000C80301D5302700E02027880404D505E042
:1015400041463846B0476D1C641EF9D52846BDE8B3
:10155000F081000070B504460D46E1B20548FFF782
:101560004EFD00BF80210348FFF77EFC0028F9D024
:10157000204670BD00100140FFF7A4FA4FF48060D0
:1015800015490880400008804000891C0880FFF74A
:101590003BFD12A0FFF78CFD1AA0FFF789FDFFF7B6
:1015A00069F8FFF7F9F90446012C09D180020A49CC
:1015B00008804000891C08804000891E088009E0DE
:1015C0004FF480600449891C08804000891E08800F
:1015D0004000088000BFFEE7181C02400D0A20BB37
:1015E000B6D3ADCAB9D3C3B1FCBBF02053544D330D
:1015F00032204634323920BFAAB7A2B0E5A1A30DEC
:101600000A0000000D0A20D5E2CAC7D2BBB8F620F6
:1016100049324320CDE2C9E82841543234433032C4
:1016200029B6C1D0B4B2E2CAD4C0FDB3CC200D0AF1
:101630000000000054160008000000201400000004
:10164000D0100008681600081400002004040000F0
:10165000E01000080000000001020304010203047E
:08166000060708090000000064
:04000005080001AD41
:00000001FF
